:020000040800F2
:10000000800500209D010008AF200008A71B000804
:10001000AB200008950300085125000800000000EF
:100020000000000000000000000000002521000882
:100030009903000800000000B120000827210008F3
:10004000C1010008C1010008C1010008C101000888
:10005000C1010008C1010008C1010008C101000878
:10006000C1010008C1010008C1010008C101000868
:10007000C1010008C1010008C1010008C101000858
:10008000C1010008C1010008C1010008C101000848
:10009000C1010008C1010008C1010008C101000838
:1000A000C1010008C1010008C1010008C101000828
:1000B000C1010008C1010008C1010008C101000818
:1000C000C1010008C1010008C1010008C101000808
:1000D000C101000841250008C1010008C101000854
:1000E000C1010008C1010008C1010008C1010008E8
:1000F000C1010008C1010008C1010008C1010008D8
:10010000C1010008C1010008C1010008C1010008C7
:10011000C1010008C1010008C1010008C1010008B7
:10012000C1010008C1010008C1010008C1010008A7
:10013000C1010008C1010008C1010008C101000897
:10014000C1010008C1010008C1010008C101000887
:10015000C1010008C1010008C1010008C101000877
:10016000C1010008C1010008C1010008C101000867
:10017000C1010008C1010008C10100080000000021
:10018000C1010008C1010008DFF80CD000F082F8BE
:1001900000480047D9290008800500200948016867
:1001A00041F4700101600848804708480047FEE7B5
:1001B000FEE7FEE7FEE7FEE7FEE7FEE7FEE7FEE717
:1001C000FEE7000088ED00E0312100088901000809
:1001D0002DE9F05F0546002092469B46884606467C
:1001E000814640241BE0284641464746224600F00F
:1001F00041F853465A46C01A914110D31146184649
:10020000224600F028F82D1A67EB01084F462246D7
:100210000120002100F01FF817EB00094E41201EBD
:10022000A4F10104DFDC484631462A464346BDE8D6
:10023000F09FD2B201E000F8012B491EFBD27047BB
:100240000022F6E710B513460A4604461946FFF7A2
:10025000F0FF204610BD202A04DB203A00FA02F10C
:10026000002070479140C2F1200320FA03F31943A4
:1002700090407047202A04DB203A21FA02F0002146
:10028000704721FA02F3D040C2F1200291400843A6
:1002900019467047064C074D06E0E06840F0010340
:1002A00094E8070098471034AC42F6D3FFF770FF8C
:1002B000C82B0008E82B000800B587B000BF00205D
:1002C00001902548006840F0020023490860084674
:1002D000006800F00200019000BF00BF12200390F0
:1002E0004FF44070029001200490032005900420F8
:1002F000069002A9194800F0BFF800BF0020019045
:1003000015481030006840F400101349103108609F
:100310000846006800F40010019000BF00BF1048BC
:10032000104908601048486000210E4881604FF471
:10033000804101610021C16101624161C16081614F
:1003400000F0AEF918B109A002F01CF902E00CA00F
:1003500002F018F907B000BD303802400004024036
:100360000054004028010020801A06004932435FF3
:10037000494E4954204552524F520D0A0000000088
:100380004932435F494E49542053554343455353E3
:100390000D0A000000BFFEE7704770B50446A56D6A
:1003A00000F078F9064694F83500022808D080203D
:1003B000606500BF002084F8340000BF012070BDDC
:1003C0002068006820F016002168086020684069F5
:1003D00020F0800021684861206C08B9A06C28B129
:1003E0002068006820F00800216808602068006824
:1003F00020F00100216808600FE000F04BF9801B3D
:1004000005280AD92020606500BF002084F8340048
:1004100000BF032084F83500D1E72068006800F0B1
:1004200001000028E9D194F85C103F208840A860C2
:1004300000BF002084F8340000BF012084F835009C
:100440000020BCE7014691F83500022803D0802047
:10045000486501207047052081F83500086800686C
:1004600020F001000A6810600020F3E710B5044690
:10047000A0B202F029FA10BDF8B502460B460025DD
:10048000002400200021DEE0012606FA01F51E68A6
:1004900006EA0504AC4275D11E7906F00306012E6A
:1004A00004D01E7906F00306022E13D190684F0087
:1004B0000326BE40B0434F00DE68BE40304390602C
:1004C000506801268E40B0431E79C6F300168E4058
:1004D000304350601E7906F00306032E09D0D06821
:1004E0004F000326BE40B0434F009E68BE403043DD
:1004F000D0601E7906F00306022E13D1CF0802F158
:10050000200656F827004E07F70E0F26BE40B043D0
:100510004F07FF0E1E69BE403043CF0802F1200690
:1005200046F8270010684F000326BE40B0431E79EE
:1005300006F003064F00BE40304310605E6806F0D0
:100540008056B6F1805F7DD100BF00260096404EF8
:10055000366846F480463E4F3E603E46366806F4B6
:100560008046009600BF00BF3A4E8F0856F827001D
:100570008E07370F0F26BE40B043374EB24202D12E
:10058000002624E05EE0354EB24201D101261EE095
:10059000334EB24201D1022619E0324EB24201D1AD
:1005A000032614E0304EB24201D104260FE02F4E54
:1005B000B24201D105260AE02D4EB24201D10626F3
:1005C00005E02C4EB24201D1072600E008268F0735
:1005D0003F0FBE4030431F4E8F0846F82700264E7F
:1005E0003068A0435E6806F48036B6F5803F00D1DF
:1005F0002043214E3060361D3068A0435E6806F40B
:100600000036B6F5003F00D120431B4E361D30604A
:10061000361D3068A0435E6806F48016B6F5801F6C
:1006200000D12043144E08363060361D3068A04398
:100630005E6806F40016B6F5001F00D120430E4E8A
:100640000C363060491C1029FFF41EAFF8BD0000C5
:1006500044380240083801400000024000040240D3
:1006600000080240000C024000100240001402404A
:1006700000180240001C0240003C01400AB18161A8
:1006800001E00B048361704701480068000C70476B
:10069000002004E0014800687047000010000020BE
:1006A00070B504460CB9012070BD94F83D0028B91E
:1006B000002084F83C00204600F0E2FB242084F86F
:1006C0003D002068006820F0010021680860206873
:1006D000006840F40040216808602068006820F449
:1006E00000402168086000F043FD05465C496068F1
:1006F000884206D85B48854201D2012007E00020ED
:1007000005E05948854201D2012000E0002001287F
:1007100000D1C9E75548B5FBF0F62068406820F0E5
:100720003F003043216848604D496068884201D8E5
:10073000701C07E04FF4967070434FF47A71B0FB71
:10074000F1F0401C2168096A21F03F01084321684B
:10075000086243496068884214D8681E616849008D
:10076000B0FBF1F0401CC0F30B00042801D20420C0
:100770003DE0681E61684900B0FBF1F0401CC0F329
:100780000B0034E0A06838B9681E616801EB4101D4
:10079000B0FBF1F0401C0AE0681E616801EBC10289
:1007A00002EB0111B0FBF1F0401C40F48040C0F3BB
:1007B0000B0008B901201AE0A06848B9681E6168FA
:1007C00001EB4101B0FBF1F0401CC0F30B000CE069
:1007D000681E616801EBC10202EB0111B0FBF1F090
:1007E000401CC0F30B0040F4804040F400402168FE
:1007F000C9694CF6FF72914308432168C861D4E986
:10080000070108432168096821F0C00108432168F5
:100810000860D4E9031008432168896848F2FF3270
:100820009143084321688860D4E9050108432168A1
:10083000C96821F0FF0108432168C860206800688A
:1008400040F001002168086000202064202084F826
:100850003D000020206384F83E0000BF24E7000034
:10086000A086010080841E0000093D0040420F0068
:100870002DE9F84F04460F4690461E46FFF70AFF43
:1008800005464FF0010994F83D0020287ED1192338
:10089000012263492046009501F0F4FA10B10220CC
:1008A000BDE8F88F00BF94F83C00012801D1022078
:1008B000F6E7012084F83C0000BF2068006800F0E3
:1008C000010028B92068006840F001002168086034
:1008D0002068006820F4006021680860242084F803
:1008E0003D00002020644F48E06200BF206800689F
:1008F00040F4807021680860334600224FF00111F7
:100900002046009501F0BEFA58B12068006800F456
:100910008070B0F5807F02D14FF400702064032016
:10092000BEE707F0FE0021680861FFF7B3FE054649
:1009300020684069C0F3400A20684069C0F3802BFA
:1009400010E0FFF7A7FE401BB04200D816B9A02068
:1009500084F83D0020684069C0F3400A206840697F
:10096000C0F3802B94F83D00A02805D0BAF1000F09
:1009700002D1BBF1000FE4D0202084F83D002068B4
:100980004069C0F3400028B3206800E045E00068FB
:1009900040F400702168086000BF002000902068CB
:1009A0004069009020688069009000BF00BF192353
:1009B00001221B492046009501F064FA08B101208C
:1009C0006EE7202084F83D0000BF002084F83C0042
:1009D00000BF65E72068006840F400702168086087
:1009E0006FF4806021684861192301220C49204678
:1009F000009501F047FA08B1012051E709F101091A
:100A0000C145FFF473AF202084F83D0000BF0020F3
:100A100084F83C0000BF012042E7022040E70000CC
:100A2000020010000000FFFF2DE9FC5F04460F46A6
:100A300090469946DDE90CAB0E9EFFF72BFE05466E
:100A400094F83D00202870D119230122B049204696
:100A5000009501F017FA10B10220BDE8FC9F00BF1D
:100A600094F83C00012801D10220F6E7012084F827
:100A70003C0000BF2068006800F0010028B9206831
:100A8000006840F00100216808602068006820F4D8
:100A9000006021680860222084F83D00402084F82E
:100AA0003E0000202064C4F824A0A4F82AB0608D81
:100AB00020859848E0624B46424639462046CDE9BB
:100AC000006501F091F808B10120C6E7208D88B9D2
:100AD00000BF002001902068406901902068806973
:100AE000019000BF00BF2068006840F400702168DA
:100AF000086040E0208D012818D12068006820F4AB
:100B000080602168086000BF002001902068406973
:100B1000019020688069019000BF00BF20680068D4
:100B200040F400702168086025E0EFE0208D022885
:100B300016D12068006820F4806021680860206871
:100B4000006840F400602168086000BF0020019048
:100B500020684069019020688069019000BF0AE028
:100B600000BF0020019020684069019020688069E2
:100B7000019000BF00BFBAE0208D03287ED8208DF1
:100B8000012815D12A463146204601F020FA08B145
:100B9000012062E720680069616A0870606A401C91
:100BA0006062208D401E2085608D401E60859EE025
:100BB000208D02282AD1334600225749204600952D
:100BC00001F060F908B1012047E72068006840F4AF
:100BD00000702168086020680069616A0870606AB6
:100BE000401C6062208D401E2085608D401E608507
:100BF00020680069616A0870606A401C6062208D2C
:100C0000401E2085608D401E608570E033460022C6
:100C100041492046009501F035F908B101201CE753
:100C20002068006820F480602168086020680069FE
:100C3000616A0870606A401C6062208D401E2085D9
:100C4000608D401E60853346002233492046009562
:100C500001F018F908B10120FFE62068006840F4AF
:100C600000702168086020680069616A0870606A25
:100C7000401C6062208D401E208500E010E0608DE9
:100C8000401E608520680069616A0870606A401CC7
:100C90006062208D401E2085608D401E608526E0AC
:100CA0002A463146204601F092F908B10120D4E6E7
:100CB00020680069616A0870606A401C6062208D6B
:100CC000401E2085608D401E608520684069C0F30D
:100CD000800060B120680069616A0870606A401C29
:100CE0006062208D401E2085608D401E6085208DB5
:100CF00000287FF441AF202084F83D00002084F8D4
:100D00003E0000BF84F83C0000BFA6E60220A4E637
:100D1000020010000000FFFF040001002DE9FC5F4D
:100D200004460F4690469946DDE90CAB0E9EFFF750
:100D3000B1FC054694F83D0020287DD119230122FD
:100D40004D492046009501F09DF810B10220BDE804
:100D5000FC9F00BF94F83C00012801D10220F6E777
:100D6000012084F83C0000BF2068006800F001000A
:100D700028B92068006840F00100216808602068F8
:100D8000006820F4006021680860212084F83D009C
:100D9000402084F83E0000202064C4F824A0A4F879
:100DA0002AB0608D20853548E0624B464246394680
:100DB0002046CDE9006500F0C7FF08B10120C6E775
:100DC00031E02A463146204601F041F950B1206C0D
:100DD000042805D12068006840F40070216808608C
:100DE0000120B4E7606A007821680861606A401CED
:100DF0006062208D401E2085608D401E60852068C9
:100E00004069C0F3800070B1208D60B1606A0078E5
:100E100021680861606A401C6062208D401E208548
:100E2000608D401E6085208D0028CAD12A4631463B
:100E3000204600F0F9FF00E01CE050B1206C0428CF
:100E400005D12068006840F4007021680860012026
:100E50007DE72068006840F4007021680860202069
:100E600084F83D00002084F83E0000BF84F83C0078
:100E700000BF6CE702206AE7020010000000FFFFDD
:100E80007047000003480068034909780844014995
:100E900008607047100000201800002010B50A48B4
:100EA000006840F40070084908600846006840F493
:100EB00080600860052000F07FF80F2000F006F841
:100EC00000F02AF8002010BD003C024070B5044636
:100ED0000E4800784FF47A71B1FBF0F00C490968C4
:100EE000B1FBF0F5284600F009FC08B1012070BD07
:100EF000102C07D200222146501E00F01EF8054893
:100F0000046001E00120F2E70020F0E71800002073
:100F10000000002014000020704701460846002809
:100F200009DB00F01F0301229A4043099B0003F1F3
:100F3000E023C3F8002100BF70472DE9F05F804631
:100F40000D461646002701F02DFB074639462A4676
:100F5000334601F00700C0F1070ABAF1040F02D9C5
:100F60004FF0040A01E0C0F1070AD14600F1040A7B
:100F7000BAF1070F02D24FF0000A01E0A0F1030A14
:100F8000D4464FF0010A0AFA09FAAAF1010A0AEA5C
:100F9000020A0AFA0CFA4FF0010B0BFA0CFBABF148
:100FA000010B0BEA030B4AEA0B042146404601F011
:100FB00001FBBDE8F09F000000BF00F00702064BF8
:100FC00019684FF6FF031940044B0B4343EA022113
:100FD000014B196000BF70470CED00E00000FA05FE
:100FE00070B504460D460CB9012070BD5848006824
:100FF00000F00700A84209D255490D700846006864
:1010000000F00700A84201D00120EEE7207800F0B0
:10101000020002281DD1207800F00400042805D128
:101020004C48006840F4E0504A490860207800F0DD
:101030000800082805D14748006840F46040454949
:1010400008604448006820F0F000A1680843414966
:101050000860207800F00100A8B36068012807D17B
:101060003C4808380068C0F34040B8B90120BCE7EC
:101070006068022802D06068032807D13548083824
:101080000068C0F3406048B90120AEE73148083835
:101090000068C0F3400008B90120A6E72D480068A9
:1010A00020F00300616808432A490860FFF7F2FA5C
:1010B000064609E0FFF7EEFA801B41F288318842CC
:1010C00002D9032091E707E02248006800F00C00F5
:1010D0006168B0EB810FEDD11D48006800F007009A
:1010E000A84209D91A490D700846006800F00700A7
:1010F000A84201D0012078E7207800F004000428FD
:1011000007D11448006820F4E050E1680843114911
:101110000860207800F00800082808D10D48006811
:1011200020F46040216940EAC1000A49086000F0EB
:101130003FF808490968C1F30311074A515CC840E8
:101140000649086006480068FFF7C0FE00204CE72B
:10115000003C024008380240B02B0008000000208C
:1011600014000020014800687047000000000020C3
:1011700000B5FFF7F7FF04490968C1F38221034A6C
:10118000515CC84000BD000008380240C02B000878
:1011900000B5FFF7E7FF04490968C1F34231034A8C
:1011A000515CC84000BD000008380240C02B000858
:1011B0002DE9F047002400250026A14625480068B7
:1011C00000F00C0020B1042805D008283AD105E031
:1011D000DFF8849039E0DFF8849036E01D48001F86
:1011E000006800F03F041B48001F006800F4800006
:1011F00078B11A481749091F0968C1F38811A0FB83
:1012000001700146224600233846FEF7E1FF0546FD
:101210000EE011480F49091F0968C1F38811A0FBAE
:1012200001700146224600233846FEF7D1FF0546ED
:101230000848001F0068C0F30140401C4600B5FB91
:10124000F6F902E0DFF8109000BF00BF4846BDE8A5
:10125000F0870000083802400024F40000127A00F1
:10126000F8B504460CB90120F8BD207800F0010063
:10127000002874D0F948006800F00C0004280DD054
:10128000F648006800F00C00082813D1F348001F4E
:10129000006800F48000B0F5800F0BD1EF480838EB
:1012A0000068C0F34040002859D06068002856D13B
:1012B0000120D9E700BF6068B0F5803F08D1E7485A
:1012C0000838006840F48030E449083908601EE0BE
:1012D0006068B0F5A02F0DD1E0480838006840F4F0
:1012E0008020DE49083908600846006840F48030F4
:1012F00008600CE0D9480838006820F48030D749ED
:10130000083908600846006820F48020086000BFA3
:10131000606890B1FFF7BEF9054606E0FFF7BAF93D
:10132000401B642801D903209EE7CC480838006898
:10133000C0F340400028F1D011E0FFF7ABF90546BB
:1013400006E0FFF7A7F9401B642801D903208BE7CB
:10135000C24808380068C0F340400028F1D1207826
:1013600000F0020002285FD1BC48006800F00C00C9
:1013700058B1BA48006800F00C0008281CD1B748E2
:10138000001F006800F48000B0B9B4480838006855
:10139000C0F3400020B1E068012801D0012063E7DC
:1013A000AE480838006820F0F800216940EAC10022
:1013B000AA490839086037E0E06800B30120A8496D
:1013C0000860FFF767F9054606E0FFF763F9401B81
:1013D000022801D9032047E7A04808380068C0F375
:1013E00040000028F1D09D480838006820F0F8003F
:1013F000216940EAC10099490839086014E00020D9
:1014000097490860FFF746F9054606E0FFF742F9FD
:10141000401B022801D9032026E7904808380068BD
:10142000C0F340000028F1D1207800F0080008281F
:101430002CD16069A8B101208A490860FFF72AF918
:10144000054606E0FFF726F9401B022801D90320D4
:101450000AE782486C300068C0F340000028F1D0F1
:1014600014E000207F490860FFF714F9054606E004
:10147000FFF710F9401B022801D90320F4E6774852
:101480006C300068C0F340000028F1D1207800F0F3
:101490000400042870D1002770483830006800F03C
:1014A000805090B900BF002000906C483830006830
:1014B00040F080506949383108600846006800F003
:1014C0008050009000BF00BF01276748006800F40B
:1014D0008070B0B96448006840F480706249086068
:1014E000FFF7D8F8054606E0FFF7D4F8401B0228BE
:1014F00001D90320B8E65C48006800F48070002839
:10150000F2D000BFA068012808D1544868300068B4
:1015100040F001005149683108601DE0A0680528CD
:101520000DD14E486830006840F004004B496831E6
:1015300008600846006840F0010008600CE0474879
:101540006830006820F001004449683108600846AE
:10155000006820F00400086000BFA068A8B1FFF791
:1015600099F8054609E0FFF795F8401B41F28831EC
:10157000884202D9032077E626E0384868300068C0
:10158000C0F340000028EED013E0FFF783F80546D3
:1015900008E0FFF77FF8401B41F28831884201D90B
:1015A000032061E62D4868300068C0F34000002841
:1015B000EFD1012F07D129483830006820F0805042
:1015C00026493831086000BFA069002845D023486B
:1015D000006800F00C0008285DD0A069022845D101
:1015E00000201F490866FFF755F8054606E0FFF79B
:1015F00051F8401B022801D9032035E61748083866
:101600000068C0F340600028F1D1D4E90701084325
:10161000616A40EA81110122A06AC2EB500041EAEE
:1016200000412C20005D41EA00600C49091F086060
:1016300001200B490866FFF72DF8054606E0FFF785
:1016400029F8401B022801D903200DE60348083879
:101650000068C0F340600028F1D049E0083802403B
:1016600000004742800E47420070004000202149A0
:101670000866FFF70FF8054606E0FFF70BF8401B7A
:10168000022801D90320EFE51B480068C0F3406041
:101690000028F2D12CE0A069012800D1E4E5164829
:1016A000001D0668A069012820D006F48001E069C9
:1016B00081421BD106F03F01206A814216D147F6D4
:1016C000C0703040616AB0EB811F0FD106F4403129
:1016D0000122A06AC2EB5000B1EB004F06D106F028
:1016E00070612C20005DB1EB006F01D00120BBE5E3
:1016F0000020B9E5000047420038024070B50446BA
:101700002546681EB0F1807F01D301200FE0681EDE
:101710004FF0E02148610F214FF0FF3000F04AFF09
:1017200000204FF0E021886107200861002070BD93
:10173000704770472DE9F84F044620680568206817
:10174000C668206847694FF00009CA4605F00F09CE
:10175000B9F1000F0AD105F0200038B106F02000E1
:1017600020B1204600F023FDBDE8F88FB9F1000F4D
:1017700072D007F0010018B906F4907000286BD001
:1017800005F0010030B106F4807018B1206C40F013
:101790000100206405F0040030B107F0010018B129
:1017A000206C40F00200206405F0020030B107F028
:1017B000010018B1206C40F00400206405F008001E
:1017C00048B106F0200010B907F0010018B1206CF4
:1017D00040F008002064206C70B305F0200028B1B0
:1017E00006F0200010B1204600F0E1FC20684069BE
:1017F000C0F3801A206C00F0080010B9BAF1000F95
:1018000023D0204600F0A8FC2068406900F040008A
:10181000402816D12068406920F0400021684861C6
:10182000A06B50B15648A16B0865A06BFEF70AFE8D
:1018300010B1A06B016D88470CE02046FFF779FFDF
:1018400008E02046FFF775FF04E02046FFF771FF30
:101850000020206488E7FFE7206B012879D105F09C
:101860001000002875D006F01000002871D000BFCD
:101870000020009020680068009020684068009078
:1018800000BF00BF2068406900F04000402839D107
:10189000A06B006840681FFA80F8B8F1000F30D0E4
:1018A000A08D40452DDDA4F82E80A06BC069B0F559
:1018B000807F1FD02068C06820F480702168C860D5
:1018C0002068406920F00100216848612068406973
:1018D00020F0400021684861202084F83E0000206C
:1018E00020632068C06820F010002168C860A06BE9
:1018F000FEF753FDA08DE28D801A81B22046FFF7DE
:1019000017FF31E7A08DE18D401A1FFA80F8E08DB6
:10191000E8B1B8F1000F1AD02068C06820F49070C8
:101920002168C8602068406920F001002168486192
:10193000202084F83E00002020632068C06820F04A
:1019400010002168C86041462046FFF7F1FE0BE712
:10195000FFE705F0800030B106F0800018B12046A6
:1019600000F0BDFD00E705F0400030B106F040009A
:1019700018B1204600F00BFCF6E600BFF4E60000CC
:101980004521000810B504460CB9012010BDA0691E
:1019900000B100E000BF94F83D0028B9002084F8B1
:1019A0003C00204600F028F8242084F83D00206800
:1019B000C06820F400502168C860204600F056FC42
:1019C0002068006920F4904021680861206840691F
:1019D00020F02A00216848612068C06840F4005067
:1019E0002168C86000202064202084F83D0084F82D
:1019F0003E000020CAE7000010B586B004462E491C
:101A00002068884255D100BF00BF002000902B48BD
:101A1000006840F01000294908600846006800F09E
:101A20001000009000BF00BF00BF00BF00BF00203B
:101A3000009022481438006840F001001F49143912
:101A400008600846006800F00100009000BF00BF79
:101A500000BF00BF00BF002000900846006840F0B3
:101A6000010008600846006800F00100009000BF17
:101A700000BF00BF48150190022002900120039092
:101A8000022004900720059001A90D48FEF7F4FC00
:101A90004FF4806001900720059001A90848FEF7E7
:101AA000EBFC2520FFF739FA032211462520FFF72A
:101AB00044FA06B010BD0000001001404438024056
:101AC0000000024070B504460D46164694F83E00EC
:101AD000202816D105B10EB9012070BD00BF94F8C1
:101AE0003C00012801D10220F7E7012084F83C00E6
:101AF00000BF0020206332462946204600F0CCFC7F
:101B0000EBE70220E9E7000010B504462049206811
:101B100088423BD11F48008800F4004088BB1D4824
:101B2000008800F4804070B11B4800780A2803D078
:101B300000201849088024E01648008840F400403E
:101B4000144908801DE0144800780D2806D111487A
:101B5000008840F480400F49088012E00E48007869
:101B60000C490988C1F30D010C4A505409480088FA
:101B7000401C0849088008460088C72801DD00206D
:101B80000880012204490648FFF79CFF10BD0000B1
:101B9000001001400C0000200E0000201C0000205E
:101BA000E4000020704700BFFEE701460868406976
:101BB000C0F38020B0B16FF480600A6850610020EB
:101BC0000863202081F83D00002081F83E00086C69
:101BD00040F00400086400BF002081F83C0000BF12
:101BE000012070470020FCE72DE9F84304460F462A
:101BF00015469946DDE908862068006840F4806053
:101C0000216808602068006840F4807021680860DE
:101C1000434600224FF001112046009600F032F9B1
:101C200060B12068006800F48070B0F5807F02D158
:101C30004FF4007020640320BDE8F88307F0FE0035
:101C400021680861334642463E49204600F05DF96E
:101C500008B10120F0E700BF002000902068406933
:101C6000009020688069009000BF00BF3246414666
:101C7000204600F0ECF950B1206C042805D1206812
:101C8000006840F40070216808600120D4E7B9F1D1
:101C9000010F03D1E8B22168086117E0C5F30720FE
:101CA0002168086132464146204600F0D0F950B123
:101CB000206C042805D12068006840F40070216879
:101CC00008600120B8E7E8B2216808613246414661
:101CD000204600F0BCF950B1206C042805D12068E2
:101CE000006840F40070216808600120A4E72068C3
:101CF000006840F4807021680860434600224FF07D
:101D000001112046009600F0BDF858B12068006827
:101D100000F48070B0F5807F02D14FF40070206431
:101D2000032089E7F8B240F00100216808613346DA
:101D300042460449204600F0E8F808B101207BE75C
:101D4000002079E7020001002DE9F84304468846A7
:101D500015469946DDE908672068006840F4807000
:101D600021680860334600224FF001112046009799
:101D700000F088F860B12068006800F48070B0F569
:101D8000807F02D14FF4007020640320BDE8F88307
:101D900008F0FE00216808613B4632462149204692
:101DA00000F0B3F808B10120F0E700BF0020009078
:101DB00020684069009020688069009000BF00BFE3
:101DC0003A463146204600F042F950B1206C0428D2
:101DD00005D12068006840F4007021680860012087
:101DE000D4E7B9F1010F03D1E8B22168086117E027
:101DF000C5F30720216808613A463146204600F0C5
:101E000026F950B1206C042805D12068006840F400
:101E10000070216808600120B8E7E8B22168086115
:101E20000020B3E70200010070B504460D461646D7
:101E300020E02046FFF7B9FE08B1012070BD681C04
:101E4000C0B1FEF727FC801BA84200D895B900203E
:101E50002063202084F83D00002084F83E00206CA0
:101E600040F02000206400BF002084F83C0000BF48
:101E70000120E3E720684069C0F380000028D8D043
:101E80000020DBE72DE9F04104460D4617461E46CB
:101E9000DDF818801CE0701CD0B1FEF7FBFBA0EB56
:101EA0000800B04200D89EB900202063202084F8AA
:101EB0003D00002084F83E00206C40F020002064AB
:101EC00000BF002084F83C0000BF0120BDE8F08185
:101ED000C5F3074001280AD120684069A9B208402B
:101EE000A9B2884201D101200BE0002009E020685E
:101EF0008069A9B20840A9B2884201D1012000E05E
:101F00000020B842C7D00020E0E72DE9F0410446A8
:101F10000D4616461F463DE020684069C0F380200C
:101F2000E8B12068006840F40070216808606FF430
:101F300080602168486100202063202084F83D00F3
:101F4000002084F83E00206C40F00400206400BFB4
:101F5000002084F83C0000BF0120BDE8F081701C27
:101F6000C0B1FEF797FBC01BB04200D896B9002065
:101F70002063202084F83D00002084F83E00206C7F
:101F800040F02000206400BF002084F83C0000BF27
:101F90000120E2E7C5F3074001280AD12068406923
:101FA000A9B20840A9B2884201D101200BE000206B
:101FB00009E020688069A9B20840A9B2884201D12D
:101FC000012000E000200028A6D00020C5E770B561
:101FD00004460D46164632E020684069C0F3001002
:101FE000A0B16FF01000216848610020206320201C
:101FF00084F83D00002084F83E00206C206400BF7F
:10200000002084F83C0000BF012070BDFEF742FBB9
:10201000801BA84200D895B900202063202084F8B6
:102020003D00002084F83E00206C40F02000206439
:1020300000BF002084F83C0000BF0120E5E72068D5
:102040004069C0F380100028C6D00020DDE770B5DD
:1020500004460D46164620E02046FFF7A6FD08B1CF
:10206000012070BD681CC0B1FEF714FB801BA842A4
:1020700000D895B900202063202084F83D0000207E
:1020800084F83E00206C40F02000206400BF002057
:1020900084F83C0000BF0120E3E720684069C0F3FA
:1020A000C0100028D8D00020DBE700BFFEE7704753
:1020B0007047000010B564230322A0210548FEF7F5
:1020C000D7FB18B904A000F05DFA02E006A000F00A
:1020D00059FA10BD280100204154323443303220D7
:1020E00072656164790D0A00415432344330322004
:1020F0006E6F742072656164790D0A001FB5044625
:102100000A20012103AA0B46CDE9002102902246B4
:10211000A1210348FEF788FC9DF80C0004B010BD17
:1021200028010020704710B5FEF7ACFE10BD00007E
:102130000348006840F470000149086070470000DF
:1021400088ED00E070B50546AC6B0020E085E084CA
:102150002046FFF7EEFA70BD0168C96821F490715E
:102160000268D1600168496921F00101026851618A
:10217000016B012905D10168C96821F010010268CD
:10218000D160202180F83E1000210163704710B516
:1021900004462068C06820F040002168C860202004
:1021A00084F83D002046FFF7FDFC002010BD70B50F
:1021B000044694F83E00222856D1A068B0F5805F0E
:1021C0000CD1206950B90025A66A20684068C0F388
:1021D00008003080A06A801CA06215E0A56A002675
:1021E000A068B0F5805F03D0A06828B9206918B94D
:1021F00020684068287004E02068406800F07F0094
:102200002870A06A401CA062E08D401E80B2E0856C
:1022100040BB2068C06820F020002168C8602068AA
:10222000C06820F480702168C8602068406920F090
:10223000010021684861202084F83E00206B0128BD
:102240000AD12068C06820F010002168C860A18D04
:102250002046FFF76DFA02E02046FFF755FC00200C
:10226000206370BD0020FCE70220FAE72DE9F84F5B
:1022700004462068006920F44050E1680843216862
:1022800008612169A068084361690843E16908435E
:1022900000902068C06849F20C61884300990843A7
:1022A0002168C8602068406920F44070A169084333
:1022B0002168486176492068884203D075492068C2
:1022C000884203D1FEF764FF814602E0FEF750FF2B
:1022D0008146E069B0F5004F6CD102206168A0FB37
:1022E000015003461920A9FB007001462A463846D2
:1022F000FDF76EFF6421B0FBF1F04FEA001A0220F7
:102300006168A0FB01510B461920A9FB00712A4608
:102310003846FDF75DFF834602206168A0FB01504F
:1023200003461920A9FB00712A463846FDF750FFE5
:102330006421B0FBF1F000EBC00101EB0010ABEB4E
:102340008000322101EBC0006421B0FBF1F000F00D
:10235000F8000AEB400A02206168A0FB0150034626
:102360001920A9FB007001462A463846FDF730FFC8
:10237000834602206168A0FB015003461920A9FB97
:1023800000712A463846FDF723FF6421B0FBF1F0C7
:1023900000EBC00101EB0010ABEB8000322101EB40
:1023A000C0006421B0FBF1F000F007005044216848
:1023B00088606AE004206168A0FB01500346192090
:1023C000A9FB007001462A463846FDF701FF824608
:1023D00004206168A0FB015003461920A9FB00708E
:1023E00001462A463846FDF7F3FE6421B0FBF1F0C2
:1023F00000EBC00101EB0010AAEB8000322101EBE1
:1024000000106421B0FBF1F000F0F00A04206168D4
:10241000A0FB017003461920A9FB00513A4628464B
:10242000FDF7D6FE6421B0FBF1F00AEB001A0420A0
:102430006168A0FB01510B461920A9FB00712A46D7
:102440003846FDF7C5FE834604206168A0FB0150B5
:1024500003461920A9FB007001462A463846FDF7BD
:10246000B7FE6421B0FBF1F000EBC00101EB0010FE
:10247000ABEB8000322101EB00106421B0FBF1F0E6
:1024800000F00F00504421688860BDE8F88F00001C
:10249000001001400014014010B5034699629A856E
:1024A000DA8500201864222083F83E0000BF002057
:1024B00083F83C0000BF1868C06840F480701C6856
:1024C000E0601868406940F001001C6860611868AD
:1024D000C06840F020001C68E060002010BD01468C
:1024E00091F83D00212828D18868B0F5805F0BD194
:1024F000086948B90A6A1088C0F308000B68586078
:10250000086A801C086205E00B6A581C086218788B
:102510000B685860C88C401E80B2C88458B90868DF
:10252000C06820F080000B68D8600868C06840F080
:1025300040000B68D860002070470220FCE70000D4
:1025400010B50248FFF7F6F810BD0000E4000020C7
:1025500000BFFEE733B583B004460A20012104AA78
:102560000B46CDE9002102902246A0210448FEF747
:10257000D5FB05460220FDF779FF284605B030BDA2
:10258000280100200FB4054B10B503A9044A029896
:1025900000F034F810BC5DF814FB00002529000899
:1025A0000800002002480068C0F3022070470000C5
:1025B0000CED00E010B5002804DB0A07130E054AF5
:1025C000135406E00A07140E034A00F00F031B1F02
:1025D000D45410BD00E400E018ED00E002E008C8AB
:1025E000121F08C1002AFAD170477047002001E08D
:1025F00001C1121F002AFBD1704700002DE9FF4FD7
:102600008DB09B460F460446002606E025280BD0D9
:102610005A460F999047641C761C20780028F5D103
:1026200011B03046BDE8F08F0025A8460122984938
:1026300000E0054314F8013F203B02FA03F0084292
:10264000F7D120782E2817D114F8010F45F0040592
:102650002A280ED06FF02F022078A0F1300109292E
:102660000AD808EB880102EB410100EB0108641C69
:10267000F2E757F8048B641C20786C280DD004DC3A
:102680004C2812D06A2811D104E074280DD07A2881
:102690000CD10AE045F4001507E0617845F4801597
:1026A000814202D1641C05F58015641C2278692AD8
:1026B00045D008DC002AB3D0582A69D0632A10D04C
:1026C000642A08D13BE0702A67D0732A13D0752A98
:1026D0005CD0782A5CD010465A460F999047761CF9
:1026E000D3E017F8040B8DF8000000208DF80100EE
:1026F000E946012003E057F8049B4FF0FF306907DB
:102700004FF0000501D40AE06D1C45450DDA854205
:10271000FADB19F805100029F6D106E06D1C854298
:10272000FCDB19F805100029F8D12E4404E019F853
:10273000010B5A460F9990476D1EF8D2A5E00A206A
:102740000021CDE90801C5F3025002280DD001CFC8
:10275000C117031E71F100030DDA4FF0000CD0EB2E
:102760000C006CEB01012D2308E0FF1D27F007078B
:10277000F7E80201EDE72B0504D52B238DF828306F
:1027800001233BE0EB0739D02023F7E70A2000E0E4
:1027900010200021CDE9080107E01020002145F0BC
:1027A0000405CDE908014FF00808C5F302500228DE
:1027B0000FD001CF00214FF0000A2B071FD5702A40
:1027C0000DD0DDE908C38CF0100C5CEA030C0CD0D2
:1027D00015E0FF1D27F00707F7E80201EBE74022AD
:1027E0008DF828204FF0010A0BE050EA010306D0D3
:1027F00030238DF828308DF8292002239A46582A54
:1028000004D024A20DF120090B9209E026A2F9E7D9
:10281000DDE90823FDF7DCFC0B9B9B5C09F8013D1F
:1028200050EA0102F4D1ADEB0900203008906807AE
:1028300001D44FF001080899884502DDA8EB01009A
:1028400000E000208046002506E00AA85A46405DC8
:102850000F9990476D1C761C5545F6DB04E030203F
:102860005A460F999047761CB8F10001A8F101086B
:10287000F5DC05E019F8010B5A460F999047761CD4
:102880000899481E08900029F4DC641CC5E6000085
:102890000928010030313233343536373839616236
:1028A00063646566000000003031323334353637FA
:1028B0003839414243444546000000000149086060
:1028C000704700000400002010B504464FF47A71F0
:1028D00004FB01F000F002F810BD000070B50346E3
:1028E00000224FF0E02675690D4E366803FB06F4B2
:1028F0004FF0E026B16910E04FF0E026B069884261
:102900000BD0884202D20E1A324402E02E1A0E4434
:1029100032440146A24200D300E0EDE700BF70BDA3
:102920000400002000BF054A126802F04002002A9D
:10293000F9D0C2B2014B5A6070470000001001404C
:1029400000B587B000BF00BF00200190204800689C
:1029500040F020001E4908600846006800F0200092
:10296000019000BF00BF00BF00BF00BF002001906A
:102970000846006840F0200008600846006800F043
:102980002000019000BF00BF00BF48150290012049
:10299000039004900220059002A90E48FDF76CFDFB
:1029A0004FF48060029002A90A48FDF765FD00BF60
:1029B000012251020748FDF761FE00BF00BF01225E
:1029C00091020448FDF75AFE00BF07B000BD0000A9
:1029D0003038024000140240FEF760FA072302225A
:1029E00008214FF4A87000F059F8A820FFF766FFFF
:1029F000FFF7A6FF4FF4E13000F0BEF8FDF75CFCF6
:102A00006420FDF733FDFFF755FB002404E0E1B23D
:102A1000E0B2FFF79FFD641CFF2CF8DD002409E005
:102A2000E0B2FFF76BFB05462A46214616A0FFF7EA
:102A3000A9FD641CFF2CF3DD25E000BF00224FF44C
:102A400000711548FDF71AFE00BF00BF0122910278
:102A50001148FDF713FE00BF4FF4FA70FFF734FF83
:102A600000BF012251020C48FDF708FE00BF00BF65
:102A700000224FF480610848FDF700FE00BF4FF4CC
:102A8000FA70FFF721FFD8E7616464723A25782075
:102A9000646174613A257800001402402DE9F04128
:102AA00092B080460C4615461E460027302106A8E7
:102AB000FDF7C6FB142101A8FDF7C2FB00BF0020F3
:102AC00000902A48006840F0805028490860084675
:102AD000006800F08050009000BF00BF00BF0020E1
:102AE00000902348006840F480402149086008466F
:102AF000006800F48040009000BF00BF01200690F5
:102B00000004079002200C9041050D91CDF83C8007
:102B10000E941095119606A8FEF7A2FB07461FB16A
:102B2000012012B0BDE8F0810F2001900220029038
:102B3000002003904FF4A05004904FF48050059073
:102B4000052101A8FEF74CFA07460FB10120E8E77E
:102B5000FDF79AFD41F20101884205D10548006860
:102B600040F48070034908600020DAE740380240F2
:102B700000700040003C024010B5044609480A4974
:102B800008600846446000218160C1600161816184
:102B90000C214161FEF7F6FE012204490248FEF7CE
:102BA00091FF10BD00100140E40000200E00002045
:102BB00000000000000000000102030406070809ED
:102BC0000000000001020304E82B000800000020C0
:102BD0001C000000DC250008042C00081C0000205C
:102BE00064050000EC2500080024F400000000004B
:102BF00000000000000000000000000010000000C5
:042C000001000000CF
:040000050800018965
:00000001FF
